{
  "transactions": [
    {
      "hash": "0x93be54c09b5e961c108401e98440f697a49db030420e992191792f49bd4b282b",
      "transactionType": "CALL",
      "contractName": null,
      "contractAddress": "0xf3b76d16a999478c05ea6367245f9bdd90d816d4",
      "function": "requestAssetPrice(string,uint64,uint32,bytes32)",
      "arguments": [
        "const assetSymbol = args[0]; const yahooFinanceUrl = `https://query1.finance.yahoo.com/v8/finance/chart/${assetSymbol}?interval=1d`; const response = await Functions.makeHttpRequest({ url: yahooFinanceUrl }); if (!response || response.status !== 200) throw new Error(\\\"Failed to fetch asset data\\\"); const data = response.data.chart.result[0]; const currentPrice = data.meta.regularMarketPrice; return Functions.encodeUint256(Math.round(currentPrice * 100));",
        "254",
        "300000",
        "0x66756e2d626173652d7365706f6c69612d310000000000000000000000000000"
      ],
      "transaction": {
        "from": "0xc6d12fc5b80e6e142692719718287d7ee8a5747c",
        "to": "0xf3b76d16a999478c05ea6367245f9bdd90d816d4",
        "gas": "0x6dfb9",
        "value": "0x0",
        "input": "0x52b38c42000000000000000000000000000000000000000000000000000000000000008000000000000000000000000000000000000000000000000000000000000000fe00000000000000000000000000000000000000000000000000000000000493e066756e2d626173652d7365706f6c69612d31000000000000000000000000000000000000000000000000000000000000000000000000000000000000000001c8636f6e737420617373657453796d626f6c203d20617267735b305d3b20636f6e7374207961686f6f46696e616e636555726c203d206068747470733a2f2f7175657279312e66696e616e63652e7961686f6f2e636f6d2f76382f66696e616e63652f63686172742f247b617373657453796d626f6c7d3f696e74657276616c3d3164603b20636f6e737420726573706f6e7365203d2061776169742046756e6374696f6e732e6d616b654874747052657175657374287b2075726c3a207961686f6f46696e616e636555726c207d293b206966202821726573706f6e7365207c7c20726573706f6e73652e73746174757320213d3d2032303029207468726f77206e6577204572726f7228224661696c656420746f206665746368206173736574206461746122293b20636f6e73742064617461203d20726573706f6e73652e646174612e63686172742e726573756c745b305d3b20636f6e73742063757272656e745072696365203d20646174612e6d6574612e726567756c61724d61726b657450726963653b2072657475726e2046756e6374696f6e732e656e636f646555696e74323536284d6174682e726f756e642863757272656e745072696365202a2031303029293b000000000000000000000000000000000000000000000000",
        "nonce": "0x9",
        "chainId": "0x14a34"
      },
      "additionalContracts": [],
      "isFixedGasLimit": false
    }
  ],
  "receipts": [
    {
      "status": "0x1",
      "cumulativeGasUsed": "0x37959a",
      "logs": [
        {
          "address": "0xfac44c030703b25911df1627824ad7303e78d491",
          "topics": [
            "0xbf50768ccf13bd0110ca6d53a9c4f1f3271abdd4c24a56878863ed25b20598ff",
            "0xa310122d5e00217d505b693cf2beca3f58870f6e1ec7ee87d7be88f0cb7a841f",
            "0x000000000000000000000000f3b76d16a999478c05ea6367245f9bdd90d816d4"
          ],
          "data": "0x000000000000000000000000c6d12fc5b80e6e142692719718287d7ee8a5747c00000000000000000000000000000000000000000000000000000000000000fe000000000000000000000000c24e3c2e72f960fa1d54170fa03492dda4ce825600000000000000000000000000000000000000000000000000000000000002400000000000000000000000000000000000000000000000000000000000000001000000000000000000000000000000000000000000000000000000000000000000000000000000000000000000000000000000000000000000000000000493e0a310122d5e00217d505b693cf2beca3f58870f6e1ec7ee87d7be88f0cb7a841f000000000000000000000000fac44c030703b25911df1627824ad7303e78d4910000000000000000000000000000000000000000000000000754c1f10861b161000000000000000000000000f3b76d16a999478c05ea6367245f9bdd90d816d400000000000000000000000000000000000000000000000000000000000000fe00000000000000000000000000000000000000000000000000000000000493e000000000000000000000000000000000000000000000000001f61930fa990ed300000000000000000000000000000000000000000000000000000000000000000000000000000000000000000000000000000000000000000000000000027eac000000000000000000000000000000000000000000000000000000000000dea800000000000000000000000000000000000000000000000000000000676ef9a8000000000000000000000000000000000000000000000000000000000000023a6c636f64654c6f636174696f6ec258200000000000000000000000000000000000000000000000000000000000000000686c616e6775616765c25820000000000000000000000000000000000000000000000000000000000000000066736f757263657901c8636f6e737420617373657453796d626f6c203d20617267735b305d3b20636f6e7374207961686f6f46696e616e636555726c203d206068747470733a2f2f7175657279312e66696e616e63652e7961686f6f2e636f6d2f76382f66696e616e63652f63686172742f247b617373657453796d626f6c7d3f696e74657276616c3d3164603b20636f6e737420726573706f6e7365203d2061776169742046756e6374696f6e732e6d616b654874747052657175657374287b2075726c3a207961686f6f46696e616e636555726c207d293b206966202821726573706f6e7365207c7c20726573706f6e73652e73746174757320213d3d2032303029207468726f77206e6577204572726f7228224661696c656420746f206665746368206173736574206461746122293b20636f6e73742064617461203d20726573706f6e73652e646174612e63686172742e726573756c745b305d3b20636f6e73742063757272656e745072696365203d20646174612e6d6574612e726567756c61724d61726b657450726963653b2072657475726e2046756e6374696f6e732e656e636f646555696e74323536284d6174682e726f756e642863757272656e745072696365202a2031303029293b64617267739f6454534c41ff000000000000",
          "blockHash": "0xa7a2346c2578979292638dce1d7496d26661be4191918469c6ac2736ed14e250",
          "blockNumber": "0x12dccce",
          "transactionHash": "0x93be54c09b5e961c108401e98440f697a49db030420e992191792f49bd4b282b",
          "transactionIndex": "0xd",
          "logIndex": "0x21",
          "removed": false
        },
        {
          "address": "0xf9b8fc078197181c841c296c876945aaa425b278",
          "topics": [
            "0xf67aec45c9a7ede407974a3e0c3a743dffeab99ee3f2d4c9a8144c2ebf2c7ec9",
            "0xa310122d5e00217d505b693cf2beca3f58870f6e1ec7ee87d7be88f0cb7a841f",
            "0x66756e2d626173652d7365706f6c69612d310000000000000000000000000000",
            "0x00000000000000000000000000000000000000000000000000000000000000fe"
          ],
          "data": "0x000000000000000000000000c24e3c2e72f960fa1d54170fa03492dda4ce8256000000000000000000000000f3b76d16a999478c05ea6367245f9bdd90d816d4000000000000000000000000c6d12fc5b80e6e142692719718287d7ee8a5747c00000000000000000000000000000000000000000000000000000000000000e0000000000000000000000000000000000000000000000000000000000000000100000000000000000000000000000000000000000000000000000000000493e00000000000000000000000000000000000000000000000000754c1f10861b161000000000000000000000000000000000000000000000000000000000000023a6c636f64654c6f636174696f6ec258200000000000000000000000000000000000000000000000000000000000000000686c616e6775616765c25820000000000000000000000000000000000000000000000000000000000000000066736f757263657901c8636f6e737420617373657453796d626f6c203d20617267735b305d3b20636f6e7374207961686f6f46696e616e636555726c203d206068747470733a2f2f7175657279312e66696e616e63652e7961686f6f2e636f6d2f76382f66696e616e63652f63686172742f247b617373657453796d626f6c7d3f696e74657276616c3d3164603b20636f6e737420726573706f6e7365203d2061776169742046756e6374696f6e732e6d616b654874747052657175657374287b2075726c3a207961686f6f46696e616e636555726c207d293b206966202821726573706f6e7365207c7c20726573706f6e73652e73746174757320213d3d2032303029207468726f77206e6577204572726f7228224661696c656420746f206665746368206173736574206461746122293b20636f6e73742064617461203d20726573706f6e73652e646174612e63686172742e726573756c745b305d3b20636f6e73742063757272656e745072696365203d20646174612e6d6574612e726567756c61724d61726b657450726963653b2072657475726e2046756e6374696f6e732e656e636f646555696e74323536284d6174682e726f756e642863757272656e745072696365202a2031303029293b64617267739f6454534c41ff000000000000",
          "blockHash": "0xa7a2346c2578979292638dce1d7496d26661be4191918469c6ac2736ed14e250",
          "blockNumber": "0x12dccce",
          "transactionHash": "0x93be54c09b5e961c108401e98440f697a49db030420e992191792f49bd4b282b",
          "transactionIndex": "0xd",
          "logIndex": "0x22",
          "removed": false
        },
        {
          "address": "0xf3b76d16a999478c05ea6367245f9bdd90d816d4",
          "topics": [
            "0x1131472297a800fee664d1d89cfa8f7676ff07189ecc53f80bbb5f4969099db8",
            "0xa310122d5e00217d505b693cf2beca3f58870f6e1ec7ee87d7be88f0cb7a841f"
          ],
          "data": "0x",
          "blockHash": "0xa7a2346c2578979292638dce1d7496d26661be4191918469c6ac2736ed14e250",
          "blockNumber": "0x12dccce",
          "transactionHash": "0x93be54c09b5e961c108401e98440f697a49db030420e992191792f49bd4b282b",
          "transactionIndex": "0xd",
          "logIndex": "0x23",
          "removed": false
        }
      ],
      "logsBloom": "0x00000000200800000080000000000002000000800004000000000000000000000000000000000202000000008000000000000000000000000000000000000000010000000000040000000000000000000800000000004000000000000000020000000000000000040000000000000000000000008000002080000000000000800000000000000000010000000000000000000000000000000000001000000000000000000000000000000000000000000000100004000000000000000000000044000000000000000080000800000000000000000000020000000000000000000000000000000400000000000000000000000000000000000000000000200000",
      "type": "0x2",
      "transactionHash": "0x93be54c09b5e961c108401e98440f697a49db030420e992191792f49bd4b282b",
      "transactionIndex": "0xd",
      "blockHash": "0xa7a2346c2578979292638dce1d7496d26661be4191918469c6ac2736ed14e250",
      "blockNumber": "0x12dccce",
      "gasUsed": "0x4b33b",
      "effectiveGasPrice": "0x4ad",
      "from": "0xc6d12fc5b80e6e142692719718287d7ee8a5747c",
      "to": "0xf3b76d16a999478c05ea6367245f9bdd90d816d4",
      "contractAddress": null,
      "l1BaseFeeScalar": "0x44d",
      "l1BlobBaseFee": "0x1",
      "l1BlobBaseFeeScalar": "0xa118b",
      "l1Fee": "0x10c103e25d",
      "l1GasPrice": "0x25bbf6eaf",
      "l1GasUsed": "0x1934"
    }
  ],
  "libraries": [],
  "pending": [],
  "returns": {},
  "timestamp": 1735325821,
  "chain": 84532,
  "commit": "cd84fbc"
}