{
  "transactions": [
    {
      "hash": "0x0470a26374c2e2e1adb1a79556dc0e459600ab1bfd2871cf875407ec760763ed",
      "transactionType": "CALL",
      "contractName": "AssetOracle",
      "contractAddress": "0x79ba35cb31620db1b5b101a9a13a1b0a82b5bc9e",
      "function": "requestAssetPrice(string,uint64,uint32,bytes32)",
      "arguments": [
        "const assetSymbol = args[0]; const yahooFinanceUrl = `https://query1.finance.yahoo.com/v8/finance/chart/${assetSymbol}?interval=1d`; const response = await Functions.makeHttpRequest({ url: yahooFinanceUrl }); if (!response || response.status !== 200) throw new Error(\\\"Failed to fetch asset data\\\"); const data = response.data.chart.result[0]; const currentPrice = data.meta.regularMarketPrice; const marketState = data.meta.marketState === \\\"REGULAR\\\"; return (Functions.encodeUint256(Math.round(currentPrice * 100)), Functions.encodeBool(marketState));",
        "254",
        "300000",
        "0x66756e2d626173652d7365706f6c69612d310000000000000000000000000000"
      ],
      "transaction": {
        "from": "0xc6d12fc5b80e6e142692719718287d7ee8a5747c",
        "to": "0x79ba35cb31620db1b5b101a9a13a1b0a82b5bc9e",
        "gas": "0x6fa7e",
        "value": "0x0",
        "input": "0x52b38c42000000000000000000000000000000000000000000000000000000000000008000000000000000000000000000000000000000000000000000000000000000fe00000000000000000000000000000000000000000000000000000000000493e066756e2d626173652d7365706f6c69612d3100000000000000000000000000000000000000000000000000000000000000000000000000000000000000000226636f6e737420617373657453796d626f6c203d20617267735b305d3b20636f6e7374207961686f6f46696e616e636555726c203d206068747470733a2f2f7175657279312e66696e616e63652e7961686f6f2e636f6d2f76382f66696e616e63652f63686172742f247b617373657453796d626f6c7d3f696e74657276616c3d3164603b20636f6e737420726573706f6e7365203d2061776169742046756e6374696f6e732e6d616b654874747052657175657374287b2075726c3a207961686f6f46696e616e636555726c207d293b206966202821726573706f6e7365207c7c20726573706f6e73652e73746174757320213d3d2032303029207468726f77206e6577204572726f7228224661696c656420746f206665746368206173736574206461746122293b20636f6e73742064617461203d20726573706f6e73652e646174612e63686172742e726573756c745b305d3b20636f6e73742063757272656e745072696365203d20646174612e6d6574612e726567756c61724d61726b657450726963653b20636f6e7374206d61726b65745374617465203d20646174612e6d6574612e6d61726b65745374617465203d3d3d2022524547554c4152223b2072657475726e202846756e6374696f6e732e656e636f646555696e74323536284d6174682e726f756e642863757272656e745072696365202a2031303029292c2046756e6374696f6e732e656e636f6465426f6f6c286d61726b6574537461746529293b0000000000000000000000000000000000000000000000000000",
        "nonce": "0x2",
        "chainId": "0x14a34"
      },
      "additionalContracts": [],
      "isFixedGasLimit": false
    }
  ],
  "receipts": [
    {
      "status": "0x1",
      "cumulativeGasUsed": "0x2ddc0c",
      "logs": [
        {
          "address": "0xfac44c030703b25911df1627824ad7303e78d491",
          "topics": [
            "0xbf50768ccf13bd0110ca6d53a9c4f1f3271abdd4c24a56878863ed25b20598ff",
            "0x49327ea71ca9d80e57b47b5c17212cf03c3c5aaadbbe4c185be001fe137cfd55",
            "0x00000000000000000000000079ba35cb31620db1b5b101a9a13a1b0a82b5bc9e"
          ],
          "data": "0x000000000000000000000000c6d12fc5b80e6e142692719718287d7ee8a5747c00000000000000000000000000000000000000000000000000000000000000fe000000000000000000000000c24e3c2e72f960fa1d54170fa03492dda4ce825600000000000000000000000000000000000000000000000000000000000002400000000000000000000000000000000000000000000000000000000000000001000000000000000000000000000000000000000000000000000000000000000000000000000000000000000000000000000000000000000000000000000493e049327ea71ca9d80e57b47b5c17212cf03c3c5aaadbbe4c185be001fe137cfd55000000000000000000000000fac44c030703b25911df1627824ad7303e78d4910000000000000000000000000000000000000000000000000746a49b010e38b200000000000000000000000079ba35cb31620db1b5b101a9a13a1b0a82b5bc9e00000000000000000000000000000000000000000000000000000000000000fe00000000000000000000000000000000000000000000000000000000000493e000000000000000000000000000000000000000000000000001f47259a639451e00000000000000000000000000000000000000000000000000000000000000000000000000000000000000000000000000000000000000000000000000027eac000000000000000000000000000000000000000000000000000000000000dea800000000000000000000000000000000000000000000000000000000676eebee00000000000000000000000000000000000000000000000000000000000002986c636f64654c6f636174696f6ec258200000000000000000000000000000000000000000000000000000000000000000686c616e6775616765c25820000000000000000000000000000000000000000000000000000000000000000066736f75726365790226636f6e737420617373657453796d626f6c203d20617267735b305d3b20636f6e7374207961686f6f46696e616e636555726c203d206068747470733a2f2f7175657279312e66696e616e63652e7961686f6f2e636f6d2f76382f66696e616e63652f63686172742f247b617373657453796d626f6c7d3f696e74657276616c3d3164603b20636f6e737420726573706f6e7365203d2061776169742046756e6374696f6e732e6d616b654874747052657175657374287b2075726c3a207961686f6f46696e616e636555726c207d293b206966202821726573706f6e7365207c7c20726573706f6e73652e73746174757320213d3d2032303029207468726f77206e6577204572726f7228224661696c656420746f206665746368206173736574206461746122293b20636f6e73742064617461203d20726573706f6e73652e646174612e63686172742e726573756c745b305d3b20636f6e73742063757272656e745072696365203d20646174612e6d6574612e726567756c61724d61726b657450726963653b20636f6e7374206d61726b65745374617465203d20646174612e6d6574612e6d61726b65745374617465203d3d3d2022524547554c4152223b2072657475726e202846756e6374696f6e732e656e636f646555696e74323536284d6174682e726f756e642863757272656e745072696365202a2031303029292c2046756e6374696f6e732e656e636f6465426f6f6c286d61726b6574537461746529293b64617267739f6454534c41ff0000000000000000",
          "blockHash": "0x64c2855ad223cbb4f7622165a4a098f23351c32935ae7e6678f5dca7ca59495a",
          "blockNumber": "0x12dc5f1",
          "transactionHash": "0x0470a26374c2e2e1adb1a79556dc0e459600ab1bfd2871cf875407ec760763ed",
          "transactionIndex": "0x12",
          "logIndex": "0x2c",
          "removed": false
        },
        {
          "address": "0xf9b8fc078197181c841c296c876945aaa425b278",
          "topics": [
            "0xf67aec45c9a7ede407974a3e0c3a743dffeab99ee3f2d4c9a8144c2ebf2c7ec9",
            "0x49327ea71ca9d80e57b47b5c17212cf03c3c5aaadbbe4c185be001fe137cfd55",
            "0x66756e2d626173652d7365706f6c69612d310000000000000000000000000000",
            "0x00000000000000000000000000000000000000000000000000000000000000fe"
          ],
          "data": "0x000000000000000000000000c24e3c2e72f960fa1d54170fa03492dda4ce825600000000000000000000000079ba35cb31620db1b5b101a9a13a1b0a82b5bc9e000000000000000000000000c6d12fc5b80e6e142692719718287d7ee8a5747c00000000000000000000000000000000000000000000000000000000000000e0000000000000000000000000000000000000000000000000000000000000000100000000000000000000000000000000000000000000000000000000000493e00000000000000000000000000000000000000000000000000746a49b010e38b200000000000000000000000000000000000000000000000000000000000002986c636f64654c6f636174696f6ec258200000000000000000000000000000000000000000000000000000000000000000686c616e6775616765c25820000000000000000000000000000000000000000000000000000000000000000066736f75726365790226636f6e737420617373657453796d626f6c203d20617267735b305d3b20636f6e7374207961686f6f46696e616e636555726c203d206068747470733a2f2f7175657279312e66696e616e63652e7961686f6f2e636f6d2f76382f66696e616e63652f63686172742f247b617373657453796d626f6c7d3f696e74657276616c3d3164603b20636f6e737420726573706f6e7365203d2061776169742046756e6374696f6e732e6d616b654874747052657175657374287b2075726c3a207961686f6f46696e616e636555726c207d293b206966202821726573706f6e7365207c7c20726573706f6e73652e73746174757320213d3d2032303029207468726f77206e6577204572726f7228224661696c656420746f206665746368206173736574206461746122293b20636f6e73742064617461203d20726573706f6e73652e646174612e63686172742e726573756c745b305d3b20636f6e73742063757272656e745072696365203d20646174612e6d6574612e726567756c61724d61726b657450726963653b20636f6e7374206d61726b65745374617465203d20646174612e6d6574612e6d61726b65745374617465203d3d3d2022524547554c4152223b2072657475726e202846756e6374696f6e732e656e636f646555696e74323536284d6174682e726f756e642863757272656e745072696365202a2031303029292c2046756e6374696f6e732e656e636f6465426f6f6c286d61726b6574537461746529293b64617267739f6454534c41ff0000000000000000",
          "blockHash": "0x64c2855ad223cbb4f7622165a4a098f23351c32935ae7e6678f5dca7ca59495a",
          "blockNumber": "0x12dc5f1",
          "transactionHash": "0x0470a26374c2e2e1adb1a79556dc0e459600ab1bfd2871cf875407ec760763ed",
          "transactionIndex": "0x12",
          "logIndex": "0x2d",
          "removed": false
        },
        {
          "address": "0x79ba35cb31620db1b5b101a9a13a1b0a82b5bc9e",
          "topics": [
            "0x1131472297a800fee664d1d89cfa8f7676ff07189ecc53f80bbb5f4969099db8",
            "0x49327ea71ca9d80e57b47b5c17212cf03c3c5aaadbbe4c185be001fe137cfd55"
          ],
          "data": "0x",
          "blockHash": "0x64c2855ad223cbb4f7622165a4a098f23351c32935ae7e6678f5dca7ca59495a",
          "blockNumber": "0x12dc5f1",
          "transactionHash": "0x0470a26374c2e2e1adb1a79556dc0e459600ab1bfd2871cf875407ec760763ed",
          "transactionIndex": "0x12",
          "logIndex": "0x2e",
          "removed": false
        }
      ],
      "logsBloom": "0x00000000000000000080000000000004000000800004000000000000000000000000000000000002000000000000000000000000000000000000000020000000010000000000000080000000000000000800000000000000000000200000020000000000000000000000000000000000000000008000002080000000000000800000040000000000000000000000000000000000000000000000001000000200000000000000000000000000080000000000100004040000000000000000000044000000000000000080000800000000000000000000020000000000000000000000400000000400000000000000000000000000000000000000000000200000",
      "type": "0x2",
      "transactionHash": "0x0470a26374c2e2e1adb1a79556dc0e459600ab1bfd2871cf875407ec760763ed",
      "transactionIndex": "0x12",
      "blockHash": "0x64c2855ad223cbb4f7622165a4a098f23351c32935ae7e6678f5dca7ca59495a",
      "blockNumber": "0x12dc5f1",
      "gasUsed": "0x4c589",
      "effectiveGasPrice": "0x18825",
      "from": "0xc6d12fc5b80e6e142692719718287d7ee8a5747c",
      "to": "0x79ba35cb31620db1b5b101a9a13a1b0a82b5bc9e",
      "contractAddress": null,
      "l1BaseFeeScalar": "0x44d",
      "l1BlobBaseFee": "0x1",
      "l1BlobBaseFeeScalar": "0xa118b",
      "l1Fee": "0xf08e35137",
      "l1GasPrice": "0x1ecbbb18b",
      "l1GasUsed": "0x1bb6"
    }
  ],
  "libraries": [],
  "pending": [],
  "returns": {},
  "timestamp": 1735322306,
  "chain": 84532,
  "commit": "2ee05f3"
}